:100000000C942A000C943C000C943C000C943C0092
:100010000C943C000C943C000C943C000C943C0070
:100020000C943C000C943C000C9403010C94DA00FA
:100030000C943C000C943C000C943C000C943C0050
:100040000C943C000C943C000C943C000C943C0040
:100050000C943C0011241FBECFE5D8E0DEBFCDBF1D
:1000600020E0A0E6B0E001C01D92A538B207E1F79C
:100070000E942C010C9431010C9400008FB7806811
:100080008FBF08958FB78F778FBF08950F931F93FA
:10009000CF93DF93C0E6D0E00FEF1FEF8C8181118B
:1000A0000EC08D819E81892B51F4EA81FB813097AE
:1000B00081F009958881998101979E838D83279688
:1000C00080E0C537D80751F7DF91CF911F910F918D
:1000D00008951E830D83F3CF60E086E490E00E94D4
:1000E000CC000E943E000C94A40097E0899FF00190
:1000F0001124E05AFF4F82819381892B49F4718347
:1001000060835383428314823683258380E008957D
:1001100081E0089597E0899FF0011124E05AFF4F94
:1001200013821282089597E0899FF0011124E05A0A
:10013000FF4F81E08483089597E0899FF0011124A7
:10014000E05AFF4F1482089583B7806483BF83B75A
:10015000886083BF83B78F7E83BF83B7806283BF8E
:100160001CBE83B7887F83BF83B783BF089582BFD8
:1001700008958CBF089582B7089593B7987F93BF71
:1001800093B7892B83BF089589B7806289BF08958B
:1001900089B78F7D89BF0895009751F0E62FF0E071
:1001A000EE0FFF1FEB58FF4F9183808380E008958F
:1001B00082E008951F920F920FB60F9211242F9391
:1001C0003F934F935F936F937F938F939F93AF93DF
:1001D000BF93EF93FF93E0918B00F0918C003097E9
:1001E00009F00995FF91EF91BF91AF919F918F9188
:1001F0007F916F915F914F913F912F910F900FBE23
:100200000F901F9018951F920F920FB60F92112406
:100210002F933F934F935F936F937F938F939F930E
:10022000AF93BF93EF93FF93E0918900F0918A0021
:10023000309709F00995FF91EF91BF91AF919F9190
:100240008F917F916F915F914F913F912F910F907F
:100250000FBE0F901F9018950E943E000E946C00E8
:06026000FFCFF894FFCF70
:00000001FF
